{
  "_format": "hh-sol-artifact-1",
  "contractName": "EtherBuzz",
  "sourceName": "contracts/EtherBuzz.sol",
  "abi": [
    {
      "anonymous": false,
      "inputs": [
        {
          "indexed": true,
          "internalType": "address",
          "name": "poster",
          "type": "address"
        },
        {
          "indexed": false,
          "internalType": "bytes32",
          "name": "postid",
          "type": "bytes32"
        },
        {
          "indexed": false,
          "internalType": "string",
          "name": "content",
          "type": "string"
        }
      ],
      "name": "PostCreated",
      "type": "event"
    },
    {
      "anonymous": false,
      "inputs": [
        {
          "indexed": true,
          "internalType": "address",
          "name": "userAddress",
          "type": "address"
        },
        {
          "indexed": false,
          "internalType": "string",
          "name": "username",
          "type": "string"
        }
      ],
      "name": "UserCreated",
      "type": "event"
    },
    {
      "inputs": [
        {
          "internalType": "string",
          "name": "_content",
          "type": "string"
        },
        {
          "internalType": "string",
          "name": "_title",
          "type": "string"
        }
      ],
      "name": "createPost",
      "outputs": [],
      "stateMutability": "nonpayable",
      "type": "function"
    },
    {
      "inputs": [
        {
          "internalType": "string",
          "name": "_username",
          "type": "string"
        },
        {
          "internalType": "string",
          "name": "_emailid",
          "type": "string"
        }
      ],
      "name": "createUser",
      "outputs": [],
      "stateMutability": "nonpayable",
      "type": "function"
    },
    {
      "inputs": [],
      "name": "getAllPosts",
      "outputs": [
        {
          "components": [
            {
              "internalType": "address",
              "name": "poster",
              "type": "address"
            },
            {
              "internalType": "uint256",
              "name": "timestamp",
              "type": "uint256"
            },
            {
              "internalType": "string",
              "name": "title",
              "type": "string"
            },
            {
              "internalType": "string",
              "name": "content",
              "type": "string"
            },
            {
              "internalType": "bytes32",
              "name": "postid",
              "type": "bytes32"
            }
          ],
          "internalType": "struct EtherBuzz.Post[]",
          "name": "",
          "type": "tuple[]"
        }
      ],
      "stateMutability": "view",
      "type": "function"
    },
    {
      "inputs": [],
      "name": "getAllUsers",
      "outputs": [
        {
          "internalType": "address[]",
          "name": "",
          "type": "address[]"
        },
        {
          "internalType": "string[]",
          "name": "",
          "type": "string[]"
        }
      ],
      "stateMutability": "view",
      "type": "function"
    },
    {
      "inputs": [
        {
          "internalType": "uint256",
          "name": "",
          "type": "uint256"
        }
      ],
      "name": "posts",
      "outputs": [
        {
          "internalType": "address",
          "name": "poster",
          "type": "address"
        },
        {
          "internalType": "uint256",
          "name": "timestamp",
          "type": "uint256"
        },
        {
          "internalType": "string",
          "name": "title",
          "type": "string"
        },
        {
          "internalType": "string",
          "name": "content",
          "type": "string"
        },
        {
          "internalType": "bytes32",
          "name": "postid",
          "type": "bytes32"
        }
      ],
      "stateMutability": "view",
      "type": "function"
    },
    {
      "inputs": [
        {
          "internalType": "uint256",
          "name": "",
          "type": "uint256"
        }
      ],
      "name": "userAddresses",
      "outputs": [
        {
          "internalType": "address",
          "name": "",
          "type": "address"
        }
      ],
      "stateMutability": "view",
      "type": "function"
    },
    {
      "inputs": [
        {
          "internalType": "address",
          "name": "",
          "type": "address"
        }
      ],
      "name": "users",
      "outputs": [
        {
          "internalType": "address",
          "name": "userAddress",
          "type": "address"
        },
        {
          "internalType": "string",
          "name": "username",
          "type": "string"
        },
        {
          "internalType": "string",
          "name": "emailid",
          "type": "string"
        }
      ],
      "stateMutability": "view",
      "type": "function"
    }
  ],
  "bytecode": "0x608060405234801561001057600080fd5b50611c66806100206000396000f3fe608060405234801561001057600080fd5b506004361061007d5760003560e01c8063502c9bd51161005b578063502c9bd5146100f057806387b162b514610120578063a87430ba1461013c578063e2842d791461016e5761007d565b80630b1e7f831461008257806330561100146100b6578063392338f5146100d4575b600080fd5b61009c60048036038101906100979190610f37565b61018d565b6040516100ad95949392919061105d565b60405180910390f35b6100be610303565b6040516100cb9190611274565b60405180910390f35b6100ee60048036038101906100e991906113cb565b6104f0565b005b61010a60048036038101906101059190610f37565b610761565b6040516101179190611443565b60405180910390f35b61013a600480360381019061013591906113cb565b6107a0565b005b6101566004803603810190610151919061148a565b610a38565b604051610165939291906114b7565b60405180910390f35b610176610b92565b60405161018492919061166d565b60405180910390f35b6000818154811061019d57600080fd5b90600052602060002090600502016000915090508060000160009054906101000a900473ffffffffffffffffffffffffffffffffffffffff16908060010154908060020180546101ec906116d3565b80601f0160208091040260200160405190810160405280929190818152602001828054610218906116d3565b80156102655780601f1061023a57610100808354040283529160200191610265565b820191906000526020600020905b81548152906001019060200180831161024857829003601f168201915b50505050509080600301805461027a906116d3565b80601f01602080910402602001604051908101604052809291908181526020018280546102a6906116d3565b80156102f35780601f106102c8576101008083540402835291602001916102f3565b820191906000526020600020905b8154815290600101906020018083116102d657829003601f168201915b5050505050908060040154905085565b60606000805480602002602001604051908101604052809291908181526020016000905b828210156104e757838290600052602060002090600502016040518060a00160405290816000820160009054906101000a900473ffffffffffffffffffffffffffffffffffffffff1673ffffffffffffffffffffffffffffffffffffffff1673ffffffffffffffffffffffffffffffffffffffff168152602001600182015481526020016002820180546103ba906116d3565b80601f01602080910402602001604051908101604052809291908181526020018280546103e6906116d3565b80156104335780601f1061040857610100808354040283529160200191610433565b820191906000526020600020905b81548152906001019060200180831161041657829003601f168201915b5050505050815260200160038201805461044c906116d3565b80601f0160208091040260200160405190810160405280929190818152602001828054610478906116d3565b80156104c55780601f1061049a576101008083540402835291602001916104c5565b820191906000526020600020905b8154815290600101906020018083116104a857829003601f168201915b5050505050815260200160048201548152505081526020019060010190610327565b50505050905090565b336000600160008373ffffffffffffffffffffffffffffffffffffffff1673ffffffffffffffffffffffffffffffffffffffff1681526020019081526020016000206001018054610540906116d3565b905011610582576040517f08c379a000000000000000000000000000000000000000000000000000000000815260040161057990611750565b60405180910390fd5b600033428560405160200161059993929190611815565b60405160208183030381529060405280519060200120905060006040518060a001604052803373ffffffffffffffffffffffffffffffffffffffff16815260200142815260200185815260200186815260200183815250908060018154018082558091505060019003906000526020600020906005020160009091909190915060008201518160000160006101000a81548173ffffffffffffffffffffffffffffffffffffffff021916908373ffffffffffffffffffffffffffffffffffffffff16021790555060208201518160010155604082015181600201908161067f91906119fa565b50606082015181600301908161069591906119fa565b50608082015181600401555050600160003373ffffffffffffffffffffffffffffffffffffffff1673ffffffffffffffffffffffffffffffffffffffff1681526020019081526020016000206003018190806001815401808255809150506001900390600052602060002001600090919091909150553373ffffffffffffffffffffffffffffffffffffffff167f31387dd70e08c723919607e82f124600642880e0e01b7beae631f51abcb390dd8286604051610753929190611acc565b60405180910390a250505050565b6002818154811061077157600080fd5b906000526020600020016000915054906101000a900473ffffffffffffffffffffffffffffffffffffffff1681565b6000600160003373ffffffffffffffffffffffffffffffffffffffff1673ffffffffffffffffffffffffffffffffffffffff16815260200190815260200160002060010180546107ef906116d3565b905014610831576040517f08c379a000000000000000000000000000000000000000000000000000000000815260040161082890611b48565b60405180910390fd5b60405180608001604052803373ffffffffffffffffffffffffffffffffffffffff168152602001838152602001828152602001600067ffffffffffffffff81111561087f5761087e6112a0565b5b6040519080825280602002602001820160405280156108ad5781602001602082028036833780820191505090505b50815250600160003373ffffffffffffffffffffffffffffffffffffffff1673ffffffffffffffffffffffffffffffffffffffff16815260200190815260200160002060008201518160000160006101000a81548173ffffffffffffffffffffffffffffffffffffffff021916908373ffffffffffffffffffffffffffffffffffffffff160217905550602082015181600101908161094c91906119fa565b50604082015181600201908161096291906119fa565b50606082015181600301908051906020019061097f929190610e83565b509050506002339080600181540180825580915050600190039060005260206000200160009091909190916101000a81548173ffffffffffffffffffffffffffffffffffffffff021916908373ffffffffffffffffffffffffffffffffffffffff1602179055503373ffffffffffffffffffffffffffffffffffffffff167f9954bce02f72fbdef0fa668ac6f42e434b5829615dac2fb22448054d2359d4f683604051610a2c9190611b68565b60405180910390a25050565b60016020528060005260406000206000915090508060000160009054906101000a900473ffffffffffffffffffffffffffffffffffffffff1690806001018054610a81906116d3565b80601f0160208091040260200160405190810160405280929190818152602001828054610aad906116d3565b8015610afa5780601f10610acf57610100808354040283529160200191610afa565b820191906000526020600020905b815481529060010190602001808311610add57829003601f168201915b505050505090806002018054610b0f906116d3565b80601f0160208091040260200160405190810160405280929190818152602001828054610b3b906116d3565b8015610b885780601f10610b5d57610100808354040283529160200191610b88565b820191906000526020600020905b815481529060010190602001808311610b6b57829003601f168201915b5050505050905083565b606080600060028054905067ffffffffffffffff811115610bb657610bb56112a0565b5b604051908082528060200260200182016040528015610be45781602001602082028036833780820191505090505b509050600060028054905067ffffffffffffffff811115610c0857610c076112a0565b5b604051908082528060200260200182016040528015610c3b57816020015b6060815260200190600190039081610c265790505b50905060005b600280549050811015610e76576001600060028381548110610c6657610c65611b8a565b5b9060005260206000200160009054906101000a900473ffffffffffffffffffffffffffffffffffffffff1673ffffffffffffffffffffffffffffffffffffffff1673ffffffffffffffffffffffffffffffffffffffff16815260200190815260200160002060000160009054906101000a900473ffffffffffffffffffffffffffffffffffffffff16838281518110610d0257610d01611b8a565b5b602002602001019073ffffffffffffffffffffffffffffffffffffffff16908173ffffffffffffffffffffffffffffffffffffffff16815250506001600060028381548110610d5457610d53611b8a565b5b9060005260206000200160009054906101000a900473ffffffffffffffffffffffffffffffffffffffff1673ffffffffffffffffffffffffffffffffffffffff1673ffffffffffffffffffffffffffffffffffffffff1681526020019081526020016000206001018054610dc7906116d3565b80601f0160208091040260200160405190810160405280929190818152602001828054610df3906116d3565b8015610e405780601f10610e1557610100808354040283529160200191610e40565b820191906000526020600020905b815481529060010190602001808311610e2357829003601f168201915b5050505050828281518110610e5857610e57611b8a565b5b60200260200101819052508080610e6e90611be8565b915050610c41565b5081819350935050509091565b828054828255906000526020600020908101928215610ebf579160200282015b82811115610ebe578251825591602001919060010190610ea3565b5b509050610ecc9190610ed0565b5090565b5b80821115610ee9576000816000905550600101610ed1565b5090565b6000604051905090565b600080fd5b600080fd5b6000819050919050565b610f1481610f01565b8114610f1f57600080fd5b50565b600081359050610f3181610f0b565b92915050565b600060208284031215610f4d57610f4c610ef7565b5b6000610f5b84828501610f22565b91505092915050565b600073ffffffffffffffffffffffffffffffffffffffff82169050919050565b6000610f8f82610f64565b9050919050565b610f9f81610f84565b82525050565b610fae81610f01565b82525050565b600081519050919050565b600082825260208201905092915050565b60005b83811015610fee578082015181840152602081019050610fd3565b60008484015250505050565b6000601f19601f8301169050919050565b600061101682610fb4565b6110208185610fbf565b9350611030818560208601610fd0565b61103981610ffa565b840191505092915050565b6000819050919050565b61105781611044565b82525050565b600060a0820190506110726000830188610f96565b61107f6020830187610fa5565b8181036040830152611091818661100b565b905081810360608301526110a5818561100b565b90506110b4608083018461104e565b9695505050505050565b600081519050919050565b600082825260208201905092915050565b6000819050602082019050919050565b6110f381610f84565b82525050565b61110281610f01565b82525050565b600082825260208201905092915050565b600061112482610fb4565b61112e8185611108565b935061113e818560208601610fd0565b61114781610ffa565b840191505092915050565b61115b81611044565b82525050565b600060a08301600083015161117960008601826110ea565b50602083015161118c60208601826110f9565b50604083015184820360408601526111a48282611119565b915050606083015184820360608601526111be8282611119565b91505060808301516111d36080860182611152565b508091505092915050565b60006111ea8383611161565b905092915050565b6000602082019050919050565b600061120a826110be565b61121481856110c9565b935083602082028501611226856110da565b8060005b85811015611262578484038952815161124385826111de565b945061124e836111f2565b925060208a0199505060018101905061122a565b50829750879550505050505092915050565b6000602082019050818103600083015261128e81846111ff565b905092915050565b600080fd5b600080fd5b7f4e487b7100000000000000000000000000000000000000000000000000000000600052604160045260246000fd5b6112d882610ffa565b810181811067ffffffffffffffff821117156112f7576112f66112a0565b5b80604052505050565b600061130a610eed565b905061131682826112cf565b919050565b600067ffffffffffffffff821115611336576113356112a0565b5b61133f82610ffa565b9050602081019050919050565b82818337600083830152505050565b600061136e6113698461131b565b611300565b90508281526020810184848401111561138a5761138961129b565b5b61139584828561134c565b509392505050565b600082601f8301126113b2576113b1611296565b5b81356113c284826020860161135b565b91505092915050565b600080604083850312156113e2576113e1610ef7565b5b600083013567ffffffffffffffff811115611400576113ff610efc565b5b61140c8582860161139d565b925050602083013567ffffffffffffffff81111561142d5761142c610efc565b5b6114398582860161139d565b9150509250929050565b60006020820190506114586000830184610f96565b92915050565b61146781610f84565b811461147257600080fd5b50565b6000813590506114848161145e565b92915050565b6000602082840312156114a05761149f610ef7565b5b60006114ae84828501611475565b91505092915050565b60006060820190506114cc6000830186610f96565b81810360208301526114de818561100b565b905081810360408301526114f2818461100b565b9050949350505050565b600081519050919050565b600082825260208201905092915050565b6000819050602082019050919050565b600061153483836110ea565b60208301905092915050565b6000602082019050919050565b6000611558826114fc565b6115628185611507565b935061156d83611518565b8060005b8381101561159e5781516115858882611528565b975061159083611540565b925050600181019050611571565b5085935050505092915050565b600081519050919050565b600082825260208201905092915050565b6000819050602082019050919050565b60006115e38383611119565b905092915050565b6000602082019050919050565b6000611603826115ab565b61160d81856115b6565b93508360208202850161161f856115c7565b8060005b8581101561165b578484038952815161163c85826115d7565b9450611647836115eb565b925060208a01995050600181019050611623565b50829750879550505050505092915050565b60006040820190508181036000830152611687818561154d565b9050818103602083015261169b81846115f8565b90509392505050565b7f4e487b7100000000000000000000000000000000000000000000000000000000600052602260045260246000fd5b600060028204905060018216806116eb57607f821691505b6020821081036116fe576116fd6116a4565b5b50919050565b7f5573657220646f6573206e6f7420657869737400000000000000000000000000600082015250565b600061173a601383610fbf565b915061174582611704565b602082019050919050565b600060208201905081810360008301526117698161172d565b9050919050565b60008160601b9050919050565b600061178882611770565b9050919050565b600061179a8261177d565b9050919050565b6117b26117ad82610f84565b61178f565b82525050565b6000819050919050565b6117d36117ce82610f01565b6117b8565b82525050565b600081905092915050565b60006117ef82610fb4565b6117f981856117d9565b9350611809818560208601610fd0565b80840191505092915050565b600061182182866117a1565b60148201915061183182856117c2565b60208201915061184182846117e4565b9150819050949350505050565b60008190508160005260206000209050919050565b60006020601f8301049050919050565b600082821b905092915050565b6000600883026118b07fffffffffffffffffffffffffffffffffffffffffffffffffffffffffffffffff82611873565b6118ba8683611873565b95508019841693508086168417925050509392505050565b6000819050919050565b60006118f76118f26118ed84610f01565b6118d2565b610f01565b9050919050565b6000819050919050565b611911836118dc565b61192561191d826118fe565b848454611880565b825550505050565b600090565b61193a61192d565b611945818484611908565b505050565b5b818110156119695761195e600082611932565b60018101905061194b565b5050565b601f8211156119ae5761197f8161184e565b61198884611863565b81016020851015611997578190505b6119ab6119a385611863565b83018261194a565b50505b505050565b600082821c905092915050565b60006119d1600019846008026119b3565b1980831691505092915050565b60006119ea83836119c0565b9150826002028217905092915050565b611a0382610fb4565b67ffffffffffffffff811115611a1c57611a1b6112a0565b5b611a2682546116d3565b611a3182828561196d565b600060209050601f831160018114611a645760008415611a52578287015190505b611a5c85826119de565b865550611ac4565b601f198416611a728661184e565b60005b82811015611a9a57848901518255600182019150602085019450602081019050611a75565b86831015611ab75784890151611ab3601f8916826119c0565b8355505b6001600288020188555050505b505050505050565b6000604082019050611ae1600083018561104e565b8181036020830152611af3818461100b565b90509392505050565b7f5573657220616c72656164792065786973747300000000000000000000000000600082015250565b6000611b32601383610fbf565b9150611b3d82611afc565b602082019050919050565b60006020820190508181036000830152611b6181611b25565b9050919050565b60006020820190508181036000830152611b82818461100b565b905092915050565b7f4e487b7100000000000000000000000000000000000000000000000000000000600052603260045260246000fd5b7f4e487b7100000000000000000000000000000000000000000000000000000000600052601160045260246000fd5b6000611bf382610f01565b91507fffffffffffffffffffffffffffffffffffffffffffffffffffffffffffffffff8203611c2557611c24611bb9565b5b60018201905091905056fea264697066735822122059072766ef4182dfc5390ea8c6ef3b2818cd2aa4eae8a59ec66fc5a78ecc4d4a64736f6c63430008110033",
  "linkReferences": {},
  "deployedLinkReferences": {}
}