{
  "_format": "hh-sol-artifact-1",
  "contractName": "EtherBuzz",
  "sourceName": "contracts/EtherBuzz.sol",
  "abi": [
    {
      "anonymous": false,
      "inputs": [
        {
          "indexed": true,
          "internalType": "address",
          "name": "userAddress",
          "type": "address"
        },
        {
          "indexed": false,
          "internalType": "string",
          "name": "username",
          "type": "string"
        }
      ],
      "name": "UserCreated",
      "type": "event"
    },
    {
      "inputs": [
        {
          "internalType": "string",
          "name": "_username",
          "type": "string"
        },
        {
          "internalType": "string",
          "name": "_emailid",
          "type": "string"
        }
      ],
      "name": "createUser",
      "outputs": [],
      "stateMutability": "nonpayable",
      "type": "function"
    },
    {
      "inputs": [],
      "name": "getAllUsers",
      "outputs": [
        {
          "internalType": "address[]",
          "name": "",
          "type": "address[]"
        },
        {
          "internalType": "string[]",
          "name": "",
          "type": "string[]"
        }
      ],
      "stateMutability": "view",
      "type": "function"
    },
    {
      "inputs": [
        {
          "internalType": "uint256",
          "name": "",
          "type": "uint256"
        }
      ],
      "name": "posts",
      "outputs": [
        {
          "internalType": "address",
          "name": "poster",
          "type": "address"
        },
        {
          "internalType": "uint256",
          "name": "timestamp",
          "type": "uint256"
        },
        {
          "internalType": "string",
          "name": "content",
          "type": "string"
        },
        {
          "internalType": "uint256",
          "name": "likeCount",
          "type": "uint256"
        }
      ],
      "stateMutability": "view",
      "type": "function"
    },
    {
      "inputs": [
        {
          "internalType": "uint256",
          "name": "",
          "type": "uint256"
        }
      ],
      "name": "userAddresses",
      "outputs": [
        {
          "internalType": "address",
          "name": "",
          "type": "address"
        }
      ],
      "stateMutability": "view",
      "type": "function"
    },
    {
      "inputs": [
        {
          "internalType": "address",
          "name": "",
          "type": "address"
        }
      ],
      "name": "users",
      "outputs": [
        {
          "internalType": "address",
          "name": "userAddress",
          "type": "address"
        },
        {
          "internalType": "string",
          "name": "username",
          "type": "string"
        },
        {
          "internalType": "string",
          "name": "emailid",
          "type": "string"
        }
      ],
      "stateMutability": "view",
      "type": "function"
    }
  ],
  "bytecode": "0x608060405234801561001057600080fd5b506113f2806100206000396000f3fe608060405234801561001057600080fd5b50600436106100575760003560e01c80630b1e7f831461005c578063502c9bd51461008f57806387b162b5146100bf578063a87430ba146100db578063e2842d791461010d575b600080fd5b610076600480360381019061007191906109ea565b61012c565b6040516100869493929190610af7565b60405180910390f35b6100a960048036038101906100a491906109ea565b610214565b6040516100b69190610b43565b60405180910390f35b6100d960048036038101906100d49190610c93565b610253565b005b6100f560048036038101906100f09190610d37565b6104eb565b60405161010493929190610d64565b60405180910390f35b610115610645565b604051610123929190610f73565b60405180910390f35b6000818154811061013c57600080fd5b90600052602060002090600502016000915090508060000160009054906101000a900473ffffffffffffffffffffffffffffffffffffffff169080600101549080600201805461018b90610fd9565b80601f01602080910402602001604051908101604052809291908181526020018280546101b790610fd9565b80156102045780601f106101d957610100808354040283529160200191610204565b820191906000526020600020905b8154815290600101906020018083116101e757829003601f168201915b5050505050908060040154905084565b6002818154811061022457600080fd5b906000526020600020016000915054906101000a900473ffffffffffffffffffffffffffffffffffffffff1681565b6000600160003373ffffffffffffffffffffffffffffffffffffffff1673ffffffffffffffffffffffffffffffffffffffff16815260200190815260200160002060010180546102a290610fd9565b9050146102e4576040517f08c379a00000000000000000000000000000000000000000000000000000000081526004016102db90611056565b60405180910390fd5b60405180608001604052803373ffffffffffffffffffffffffffffffffffffffff168152602001838152602001828152602001600067ffffffffffffffff81111561033257610331610b68565b5b6040519080825280602002602001820160405280156103605781602001602082028036833780820191505090505b50815250600160003373ffffffffffffffffffffffffffffffffffffffff1673ffffffffffffffffffffffffffffffffffffffff16815260200190815260200160002060008201518160000160006101000a81548173ffffffffffffffffffffffffffffffffffffffff021916908373ffffffffffffffffffffffffffffffffffffffff16021790555060208201518160010190816103ff9190611222565b5060408201518160020190816104159190611222565b506060820151816003019080519060200190610432929190610936565b509050506002339080600181540180825580915050600190039060005260206000200160009091909190916101000a81548173ffffffffffffffffffffffffffffffffffffffff021916908373ffffffffffffffffffffffffffffffffffffffff1602179055503373ffffffffffffffffffffffffffffffffffffffff167f9954bce02f72fbdef0fa668ac6f42e434b5829615dac2fb22448054d2359d4f6836040516104df91906112f4565b60405180910390a25050565b60016020528060005260406000206000915090508060000160009054906101000a900473ffffffffffffffffffffffffffffffffffffffff169080600101805461053490610fd9565b80601f016020809104026020016040519081016040528092919081815260200182805461056090610fd9565b80156105ad5780601f10610582576101008083540402835291602001916105ad565b820191906000526020600020905b81548152906001019060200180831161059057829003601f168201915b5050505050908060020180546105c290610fd9565b80601f01602080910402602001604051908101604052809291908181526020018280546105ee90610fd9565b801561063b5780601f106106105761010080835404028352916020019161063b565b820191906000526020600020905b81548152906001019060200180831161061e57829003601f168201915b5050505050905083565b606080600060028054905067ffffffffffffffff81111561066957610668610b68565b5b6040519080825280602002602001820160405280156106975781602001602082028036833780820191505090505b509050600060028054905067ffffffffffffffff8111156106bb576106ba610b68565b5b6040519080825280602002602001820160405280156106ee57816020015b60608152602001906001900390816106d95790505b50905060005b60028054905081101561092957600160006002838154811061071957610718611316565b5b9060005260206000200160009054906101000a900473ffffffffffffffffffffffffffffffffffffffff1673ffffffffffffffffffffffffffffffffffffffff1673ffffffffffffffffffffffffffffffffffffffff16815260200190815260200160002060000160009054906101000a900473ffffffffffffffffffffffffffffffffffffffff168382815181106107b5576107b4611316565b5b602002602001019073ffffffffffffffffffffffffffffffffffffffff16908173ffffffffffffffffffffffffffffffffffffffff1681525050600160006002838154811061080757610806611316565b5b9060005260206000200160009054906101000a900473ffffffffffffffffffffffffffffffffffffffff1673ffffffffffffffffffffffffffffffffffffffff1673ffffffffffffffffffffffffffffffffffffffff168152602001908152602001600020600101805461087a90610fd9565b80601f01602080910402602001604051908101604052809291908181526020018280546108a690610fd9565b80156108f35780601f106108c8576101008083540402835291602001916108f3565b820191906000526020600020905b8154815290600101906020018083116108d657829003601f168201915b505050505082828151811061090b5761090a611316565b5b6020026020010181905250808061092190611374565b9150506106f4565b5081819350935050509091565b828054828255906000526020600020908101928215610972579160200282015b82811115610971578251825591602001919060010190610956565b5b50905061097f9190610983565b5090565b5b8082111561099c576000816000905550600101610984565b5090565b6000604051905090565b600080fd5b600080fd5b6000819050919050565b6109c7816109b4565b81146109d257600080fd5b50565b6000813590506109e4816109be565b92915050565b600060208284031215610a00576109ff6109aa565b5b6000610a0e848285016109d5565b91505092915050565b600073ffffffffffffffffffffffffffffffffffffffff82169050919050565b6000610a4282610a17565b9050919050565b610a5281610a37565b82525050565b610a61816109b4565b82525050565b600081519050919050565b600082825260208201905092915050565b60005b83811015610aa1578082015181840152602081019050610a86565b60008484015250505050565b6000601f19601f8301169050919050565b6000610ac982610a67565b610ad38185610a72565b9350610ae3818560208601610a83565b610aec81610aad565b840191505092915050565b6000608082019050610b0c6000830187610a49565b610b196020830186610a58565b8181036040830152610b2b8185610abe565b9050610b3a6060830184610a58565b95945050505050565b6000602082019050610b586000830184610a49565b92915050565b600080fd5b600080fd5b7f4e487b7100000000000000000000000000000000000000000000000000000000600052604160045260246000fd5b610ba082610aad565b810181811067ffffffffffffffff82111715610bbf57610bbe610b68565b5b80604052505050565b6000610bd26109a0565b9050610bde8282610b97565b919050565b600067ffffffffffffffff821115610bfe57610bfd610b68565b5b610c0782610aad565b9050602081019050919050565b82818337600083830152505050565b6000610c36610c3184610be3565b610bc8565b905082815260208101848484011115610c5257610c51610b63565b5b610c5d848285610c14565b509392505050565b600082601f830112610c7a57610c79610b5e565b5b8135610c8a848260208601610c23565b91505092915050565b60008060408385031215610caa57610ca96109aa565b5b600083013567ffffffffffffffff811115610cc857610cc76109af565b5b610cd485828601610c65565b925050602083013567ffffffffffffffff811115610cf557610cf46109af565b5b610d0185828601610c65565b9150509250929050565b610d1481610a37565b8114610d1f57600080fd5b50565b600081359050610d3181610d0b565b92915050565b600060208284031215610d4d57610d4c6109aa565b5b6000610d5b84828501610d22565b91505092915050565b6000606082019050610d796000830186610a49565b8181036020830152610d8b8185610abe565b90508181036040830152610d9f8184610abe565b9050949350505050565b600081519050919050565b600082825260208201905092915050565b6000819050602082019050919050565b610dde81610a37565b82525050565b6000610df08383610dd5565b60208301905092915050565b6000602082019050919050565b6000610e1482610da9565b610e1e8185610db4565b9350610e2983610dc5565b8060005b83811015610e5a578151610e418882610de4565b9750610e4c83610dfc565b925050600181019050610e2d565b5085935050505092915050565b600081519050919050565b600082825260208201905092915050565b6000819050602082019050919050565b600082825260208201905092915050565b6000610eaf82610a67565b610eb98185610e93565b9350610ec9818560208601610a83565b610ed281610aad565b840191505092915050565b6000610ee98383610ea4565b905092915050565b6000602082019050919050565b6000610f0982610e67565b610f138185610e72565b935083602082028501610f2585610e83565b8060005b85811015610f615784840389528151610f428582610edd565b9450610f4d83610ef1565b925060208a01995050600181019050610f29565b50829750879550505050505092915050565b60006040820190508181036000830152610f8d8185610e09565b90508181036020830152610fa18184610efe565b90509392505050565b7f4e487b7100000000000000000000000000000000000000000000000000000000600052602260045260246000fd5b60006002820490506001821680610ff157607f821691505b60208210810361100457611003610faa565b5b50919050565b7f5573657220616c72656164792065786973747300000000000000000000000000600082015250565b6000611040601383610a72565b915061104b8261100a565b602082019050919050565b6000602082019050818103600083015261106f81611033565b9050919050565b60008190508160005260206000209050919050565b60006020601f8301049050919050565b600082821b905092915050565b6000600883026110d87fffffffffffffffffffffffffffffffffffffffffffffffffffffffffffffffff8261109b565b6110e2868361109b565b95508019841693508086168417925050509392505050565b6000819050919050565b600061111f61111a611115846109b4565b6110fa565b6109b4565b9050919050565b6000819050919050565b61113983611104565b61114d61114582611126565b8484546110a8565b825550505050565b600090565b611162611155565b61116d818484611130565b505050565b5b818110156111915761118660008261115a565b600181019050611173565b5050565b601f8211156111d6576111a781611076565b6111b08461108b565b810160208510156111bf578190505b6111d36111cb8561108b565b830182611172565b50505b505050565b600082821c905092915050565b60006111f9600019846008026111db565b1980831691505092915050565b600061121283836111e8565b9150826002028217905092915050565b61122b82610a67565b67ffffffffffffffff81111561124457611243610b68565b5b61124e8254610fd9565b611259828285611195565b600060209050601f83116001811461128c576000841561127a578287015190505b6112848582611206565b8655506112ec565b601f19841661129a86611076565b60005b828110156112c25784890151825560018201915060208501945060208101905061129d565b868310156112df57848901516112db601f8916826111e8565b8355505b6001600288020188555050505b505050505050565b6000602082019050818103600083015261130e8184610abe565b905092915050565b7f4e487b7100000000000000000000000000000000000000000000000000000000600052603260045260246000fd5b7f4e487b7100000000000000000000000000000000000000000000000000000000600052601160045260246000fd5b600061137f826109b4565b91507fffffffffffffffffffffffffffffffffffffffffffffffffffffffffffffffff82036113b1576113b0611345565b5b60018201905091905056fea2646970667358221220283e3ddf27df733767c7b8a7a727f85a8132cfd60285fdf52420e769bd8a44d564736f6c63430008110033",
  "linkReferences": {},
  "deployedLinkReferences": {}
}